:100000000C9463040C948B040C948B040C948B045C
:100010000C948B040C948B040C948B040C948B0424
:100020000C948B040C948B040C948B040C948B0414
:100030000C948B040C948B040C948B040C948B0404
:100040000C94C70B0C948B040C94950B0C946F0BB5
:100050000C948B040C948B040C948B040C948B04E4
:100060000C948B040C948B040000000023002600E9
:10007000290000000000000000007E8195B1B195CC
:10008000817E7EFFEBCFCFEBFF7E0E1F3F7E3F1FBB
:100090000E00081C3E7F3E1C080018BAFFFFFFBA86
:1000A000180010B8FCFFFCB810000000183C3C1809
:1000B0000000FFFFE7C3C3E7FFFF003C6642426664
:1000C0003C00FFC399BDBD99C3FF70F88888FD7FD0
:1000D000070F004E5FF1F15F4E00C0E0FF7F0505A6
:1000E0000707C0FF7F0505657F3F995A3CE7E73C5E
:1000F0005A997F3E3E1C1C08080008081C1C3E3E06
:100100007F00002466FFFF662400005F5F00005F41
:100110005F00060F097F7F017F7F40DABFA5FD5991
:10012000030200707070707070008094B6FFFFB6AC
:1001300094800004067F7F0604000010307F7F302B
:1001400010000808082A3E1C0800081C3E2A08085F
:1001500008003C3C202020202000081C3E08083ECF
:100160001C0830383C3E3E3C3830060E1E3E3E1EDB
:100170000E06000000000000000000065F5F0600A1
:1001800000000007070007070000147F7F147F7F2F
:100190001400242E6B6B3A120000466630180C6671
:1001A0006200307A4F5D377A480004070300000090
:1001B0000000001C3E63410000000041633E1C0043
:1001C0000000082A3E1C1C3E2A0808083E3E08087B
:1001D00000000080E060000000000808080808082F
:1001E000000000006060000000006030180C060392
:1001F00001003E7F71594D7F3E0040427F7F40406D
:100200000000627359496F660000226349497F36D6
:100210000000181C16537F7F5000276745457D3925
:1002200000003C7E4B4979300000030371790F07D1
:100230000000367F49497F360000064F49693F1E5E
:10024000000000006666000000000080E666000016
:100250000000081C366341000000242424242424C8
:100260000000004163361C080000020351590F06CC
:1002700000003E7F415D5D1F1E007C7E13137E7C6F
:100280000000417F7F49497F36001C3E6341416346
:100290002200417F7F41633E1C00417F7F495D41D9
:1002A0006300417F7F491D0103001C3E6341517380
:1002B00072007F7F08087F7F000000417F7F410040
:1002C0000000307040417F3F0100417F7F081C7774
:1002D0006300417F7F41406070007F7F0E1C0E7F76
:1002E0007F007F7F060C187F7F001C3E6341633ECA
:1002F0001C00417F7F49090F06001E3F21717F5E70
:100300000000417F7F09197F6600266F4D597332C7
:10031000000003417F7F410300007F7F40407F7FDB
:1003200000001F3F60603F1F00007F7F3018307F5C
:100330007F0043673C183C674300074F78784F07BE
:100340000000476371594D677300007F7F41410092
:1003500000000103060C183060000041417F7F005F
:100360000000080C0603060C080080808080808056
:1003700080800000030704000000207454543C787F
:100380004000417F3F4848783000387C44446C2826
:100390000000307848493F7F4000387C54545C1856
:1003A0000000487E7F490302000098BCA4A4F87CAA
:1003B0000400417F7F08047C780000447D7D40007C
:1003C000000060E08080FD7D0000417F7F10386C80
:1003D000440000417F7F400000007C7C18381C7C7A
:1003E00078007C7C04047C780000387C44447C38B1
:1003F000000084FCF8A4243C1800183C24A4F8FC59
:100400008400447C784C041C1800485C54547424C8
:10041000000000043E7F442400003C7C40403C7CC3
:1004200040001C3C60603C1C00003C7C7038707CD0
:100430003C00446C3810386C44009CBCA0A0FC7C90
:1004400000004C64745C4C64000008083E77414135
:10045000000000000077770000004141773E080867
:100460000000020301030203010070784C464C783F
:1004700070000E9F91B1FB4A00003A7A40407A7AB0
:100480004000387C54555D19000002237555557D98
:100490007B42217554547D794000217555547C78F8
:1004A0004000207457577C784000183CA4A4E440D6
:1004B0000000023B7D55555D1B02397D54545D198A
:1004C0000000397D55545C18000001457C7C4101D9
:1004D00000000203457D7D43020001457D7C400014
:1004E0000000797D1612167D790070782B2B7870BC
:1004F0000000447C7C5555450000207454547C7C9D
:1005000054547C7E0B097F7F4900327B49497B3202
:100510000000327A48487A320000327A4A4878300D
:1005200000003A7B41417B7A40003A7A4240787839
:1005300040009ABAA0A0FA7A000001193C66663C15
:1005400019013D7D40407D3D0000183C24E7E72433
:100550002400687E7F49436620002B2FFCFC2F2B54
:100560000000FFFF09092FF6F8A040C088FE7F09B0
:100570000302207454557D79400000447D7D410084
:1005800000003078484A7A320000387840427A7A5F
:1005900040007A7A0A0A7A7000007D7D19317D7DEB
:1005A000000000262F292F2F280000262F292F2674
:1005B000000030784D4560200000383808080808F1
:1005C000000008080808383800004F6F3018CCEEDB
:1005D000BB914F6F30186C76FBF90000007B7B00FD
:1005E0000000081C3622081C362222361C0822363F
:1005F0001C08AA005500AA005500AA55AA55AA55DC
:10060000AA55DDFFAA77DDAAFF77000000FFFF00F3
:100610000000101010FFFF000000141414FFFF0072
:1006200000001010FFFF00FFFF001010F0F010F0AE
:10063000F000141414FCFC0000001414F7F700FF81
:10064000FF000000FFFF00FFFF001414F4F404FC9F
:10065000FC0014141717101F1F0010101F1F101F6D
:100660001F001414141F1F000000101010F0F000E1
:1006700000000000001F1F1010101010101F1F108E
:100680001010101010F0F0101010000000FFFF10FC
:1006900010101010101010101010101010FFFF107C
:1006A0001010000000FFFF1414140000FFFF00FFF3
:1006B000FF1000001F1F101717140000FCFC04F4AB
:1006C000F41414141717101717141414F4F404F472
:1006D000F4140000FFFF00F7F7141414141414149A
:1006E00014141414F7F700F7F7141414141717144C
:1006F000141410101F1F101F1F10141414F4F414DE
:1007000014141010F0F010F0F01000001F1F101F54
:100710001F100000001F1F141414000000FCFC1424
:1007200014140000F0F010F0F0101010FFFF10FF94
:10073000FF10141414FFFF1414141010101F1F00C6
:100740000000000000F0F0101010FFFFFFFFFFFF9F
:10075000FFFFF0F0F0F0F0F0F0F0FFFFFFFF00001F
:10076000000000000000FFFFFFFF0F0F0F0F0F0F33
:100770000F0F387C446C386C4400FCFE2A2A3E146F
:1007800000007E7E020206060000027E7E027E7E61
:10079000020063775D4963630000387C447C3C045D
:1007A000040080FE7E20203E1E000406027E7C06A1
:1007B000020099BDE7E7BD9900001C3E6B496B3E06
:1007C0001C004C7E7301737E4C0030784A4F7D399B
:1007D0000000183C243C3C243C1898FC643C3E2718
:1007E0003D181C3E6B49490000007E7F01017F7E61
:1007F00000002A2A2A2A2A2A000044445F5F44442F
:10080000000040515B4E4440000040444E5B51406C
:100810000000000000FEFF01070660E080FF7F008F
:10082000000008086B6B08080000243612362436D6
:10083000120000060F090F06000000000018180043
:1008400000000000001010000000103070C0FFFF1A
:100850000101001F1F011F1E000000191D171200BB
:10086000000000003C3C3C3C000000000000000098
:10087000000000000000240027002A000000000003
:10088000250028002B0004040404040404040202CC
:1008900002020202030303030303010204081020FF
:1008A000408001020408102001020408102000000A
:1008B000000800020100000304070000000000001F
:1008C0000000110C480E11241FBECFEFD8E0DEBF90
:1008D000CDBF26E0A2E4B1E001C01D92A330B20773
:1008E000E1F711E0A0E0B1E0E0EFF1E202C0059035
:1008F0000D92A234B107D9F714E0C2E6D4E004C0E7
:100900002197FE010E94D90EC136D107C9F70E9476
:10091000610C0C94EB100C940000CF92DF92EF92DC
:10092000FF920F931F93CF93DF936C017A018B019A
:10093000C0E0D0E0CE15DF0589F0D8016D918D01C2
:10094000D601ED91FC910190F081E02DC601099551
:10095000892B11F47E0102C02196ECCFC701DF91F3
:10096000CF911F910F91FF90EF90DF90CF9008955E
:10097000089580E090E00895FC01538D448D252F6B
:1009800030E0842F90E0821B930B541710F0CF9629
:10099000089501970895FC01918D828D981761F05B
:1009A000828DDF01A80FB11D5D968C91928D9F5FA6
:1009B0009F73928F90E008958FEF9FEF0895FC0151
:1009C000918D828D981731F0828DE80FF11D858D04
:1009D00090E008958FEF9FEF0895FC01918D228D97
:1009E000892F90E0805C9F4F821B91098F7399271C
:1009F000089586E794E00E94ED0421E0892B09F434
:100A000020E0822F0895FC01848DDF01A80FB11D25
:100A1000A35ABF4F2C91848D90E001968F73992734
:100A2000848FA689B7892C93A089B1898C91806421
:100A30008C93938D848D981306C00288F389E02DE2
:100A400080818F7D80830895EF92FF920F931F9393
:100A5000CF93DF93EC0181E0888F9B8D8C8D981371
:100A600005C0E889F989808185FD24C0F62E0B8DAB
:100A700010E00F5F1F4F0F731127E02E8C8DE812CF
:100A80000CC00FB607FCFACFE889F989808185FF91
:100A9000F5CFCE010E940305F1CF8B8DFE01E80F4B
:100AA000F11DE35AFF4FF0820B8FEA89FB898081A9
:100AB000806207C0EE89FF896083E889F9898081B7
:100AC0008064808381E090E0DF91CF911F910F914E
:100AD000FF90EF900895CF93DF93EC01888D8823EA
:100AE000C9F0EA89FB89808185FD05C0A889B9899B
:100AF0008C9186FD0FC00FB607FCF5CF808185FF76
:100B0000F2CFA889B9898C9185FFEDCFCE010E94E3
:100B10000305E7CFDF91CF91089580E090E0892B26
:100B200029F00E94F90481110C940000089583308B
:100B300081F028F4813099F08230A1F00895873057
:100B4000A9F08830B9F08430D1F4809180008F7D95
:100B500003C0809180008F7780938000089584B5D2
:100B60008F7702C084B58F7D84BD08958091B000D9
:100B70008F7703C08091B0008F7D8093B00008957F
:100B80001F93CF93DF93282F30E0F901E255F74F01
:100B90008491F901E656F74FD491F901EA57F74FDE
:100BA000C491CC23C9F0162F81110E949705EC2F18
:100BB000F0E0EE0FFF1FE458F74FA591B4918FB707
:100BC000F894111105C09C91ED2FE095E92302C026
:100BD000EC91ED2BEC938FBFDF91CF911F91089596
:100BE000CF93DF9390E0FC01E656F74F2491FC0190
:100BF000EA57F74F8491882361F190E0880F991F9D
:100C0000FC01EE58F74FC591D491FC01E458F74F21
:100C1000A591B491611109C09FB7F894888120957E
:100C200082238883EC912E230BC0623061F49FB73E
:100C3000F8943881822F809583238883EC912E2B22
:100C40002C939FBF06C08FB7F894E8812E2B288382
:100C50008FBFDF91CF9108952FB7F894609149012C
:100C600070914A0180914B0190914C012FBF0895E2
:100C7000CF92DF92EF92FF920F931F93CF93DF9368
:100C80008C01C0E0D0E00E942C0660937E0470933B
:100C90007F048093800490938104E0917604F09126
:100CA00077040284F385E02D86E794E0099597FDAB
:100CB00004C082309105F9F427C00E942C06C09030
:100CC0007E04D0907F04E0908004F0908104DC01E9
:100CD000CB018C199D09AE09BF09C0907A04D09050
:100CE0007B04E0907C04F0907D048C159D05AE059E
:100CF000BF0598F209C0F80181938F012196C03990
:100D0000F1E0DF0709F0BFCFCE01DF91CF911F9156
:100D10000F91FF90EF90DF90CF9008950F931F9366
:100D20000E942C0660937E0470937F04809380045D
:100D300090938104E0917604F09177040484F58522
:100D4000E02D86E794E0099597FF1FC00E942C06CE
:100D500000917E0410917F042091800430918104E1
:100D6000DC01CB01801B910BA20BB30B00917A0429
:100D700010917B0420917C0430917D0480179107B1
:100D8000A207B307B8F28FEF9FEF1F910F9108955D
:100D9000EF92FF920F931F93CF93DF93EC01162FE7
:100DA00008E0888199818F3F2FEF920739F017FF74
:100DB00002C061E001C060E00E94C005110F2A81FD
:100DC0003B812F3F8FEF380701F13327F901E255BF
:100DD000F74F8491F901E656F74FE490F901EA578D
:100DE000F74FF490FF2079F081110E949705EF2DC5
:100DF000F0E0EE0FFF1FE859FF4FA591B491EC9181
:100E0000EE2181E009F480E0182B61E08C810E94E2
:100E1000C0058E819F818230910538F0880F991F1F
:100E2000880F991F05970197F1F760E08C810E9468
:100E3000C0058E819F818230910538F0880F991FFF
:100E4000880F991F05970197F1F7015009F0A9CF75
:100E5000812FDF91CF911F910F91FF90EF90089517
:100E6000CF93CFB7F89480914301811127C0E0E977
:100E7000F8E08491E4EAF8E09491E82FF0E0EE0FD6
:100E8000FF1FEE58F74FA591B491EC91E92321F49F
:100E900061E08AE00E94C00561E08AE00E94F005FE
:100EA0008CB580618CBD8CB580648CBD61E08DE0BB
:100EB0000E94F00561E08BE00E94F0058091430103
:100EC0008F5F80934301CFBFCF9108958EBD000007
:100ED0000DB407FEFDCF8EB508951F93CF93DF931A
:100EE000EC01142F8C81882371F08D819E810097F5
:100EF00099F00E94C806612F8D819E81DF91CF916C
:100F00001F910C94C806862F0E946607812FDF91DF
:100F1000CF911F910C946607DF91CF911F91089597
:100F20007F928F929F92AF92BF92CF92DF92EF9279
:100F3000FF920F931F93CF93DF93EC01962E842E95
:100F4000752E00E010E087E0E82EF12CC62ED12CA3
:100F500060E089810E94C005B12CB91439F040E0ED
:100F600060E0CE010E946D07B394F7CFE82DF72D16
:100F700080E090E040E0219130E0002E02C0359505
:100F800027950A94E2F721703327B701681B790B84
:100F900001C0220F6A95EAF7422B0196883091052D
:100FA00051F761E0600FCE010E946D07A12CB12CBA
:100FB000288130E02C193D0921503109A216B306D1
:100FC0004CF440E060E0CE010E946D078FEFA81A5C
:100FD000B80AEECF61E089810E94C0050F5F1F4F04
:100FE0000830110509F0B4CFDF91CF911F910F9117
:100FF000FF90EF90DF90CF90BF90AF909F908F9039
:101000007F900895FF920F931F93CF93DF93EC018E
:10101000062FF42E60E089810E94C00510E08881CF
:10102000181738F44F2D602FCE010E946D071F5FF7
:10103000F6CF61E08981DF91CF911F910F91FF90F1
:101040000C94C005EF92FF920F931F93CF93DF9301
:10105000D62FF42EE22E8C01085B1F4F60E0F801C2
:1010600080810E94C005C0E0CE1105C08D2F0E9476
:1010700066078F2D04C080E00E94660780E00E9412
:101080006607CF5FC93081F761E0F80180810E9477
:10109000C00560E0F8018081DF91CF911F910F9131
:1010A000FF90EF900C94C0050F931F93CF93DF93A5
:1010B0008C01C0E0D0E0F801EC0FF11D88E0D89F72
:1010C000E00DF11D11244081CF5F2D2F6C2FC80141
:1010D0000E942208C83011F4DF5FC0E0D83458F312
:1010E000DF91CF911F910F910895EF92FF921F937F
:1010F000CF93DF93EC01162F0E9430078CB58F7DC4
:101100008CBD7E0188E4E80EF11CF701108361E0DC
:10111000812F0E94F00561E0812F0E94C00510E040
:10112000212F40E069E0CE010E942208212F4FE0EC
:101130006AE0CE010E942208212F47E06BE0CE0139
:101140000E942208212F40E06FE0CE010E94220879
:10115000212F41E06CE0CE010E942208FE01119295
:10116000EE15FF05E1F7CE010E9454081F5F19300C
:10117000B9F6C75BDF4F1882DF91CF911F91FF90C7
:10118000EF900895CF93DF93FB0101900020E9F7E2
:1011900031979F01261B370BFB01DC01A85BBF4F7A
:1011A00040E050E04217530769F0EF01808183303F
:1011B00009F41082319688818E934F5F5F4F4834D7
:1011C000510581F7DF91CF910895009769F0FC01F7
:1011D00001900020E9F73197AF01481B590BBC0182
:1011E00086E794E00C948D0480E090E00895CF931E
:1011F000DF930E94E508EC0188E191E00E94E50898
:101200008C0F9D1FDF91CF9108958F929F92AF9287
:10121000BF920F931F93CF93DF93CDB7DEB7A19704
:101220000FB6F894DEBF0FBECDBF19A2423008F44E
:101230004AE08E010F5D1F4F842E912CA12CB12C02
:10124000A50194010E94B70EE62FB901CA01015011
:101250001109EA3014F4E05D01C0E95CD801EC93B7
:10126000232B242B252B61F7C8010E94E508A196AA
:101270000FB6F894DEBF0FBECDBFDF91CF911F91A7
:101280000F91BF90AF909F908F9008950E94D610BD
:101290002F923F924F925F926F927F928F929F9286
:1012A000AF92BF92CF92DF92EF92FF920F931F9374
:1012B000CF93DF93CDB7DEB768970FB6F894DEBF54
:1012C0000FBECDBF3C015B01FB0101900020E9F79F
:1012D00031977F01E61AF70A6A0157FF03C027E03A
:1012E000C20ED11C83E0D594C7948A95E1F7C6015C
:1012F00023E0880F991F2A95E1F78A01081B190B33
:10130000512C38E1432ECE0101964C01180198E092
:10131000290E311C280C391CF3018081581608F065
:1013200077C0F401242D11922A95E9F7852D90E0DC
:1013300017FD05C08C0D9D1D97FF23C03DC0A60164
:10134000480F591F14161506ACF7E416F50694F36A
:10135000D40120E030E04A0D5B1D41505109FA01F3
:101360006081F90178E06702E00DF11D1124EE586B
:10137000FF4FE491ED932F5F3F4F2830310579F710
:10138000D9CF8E159F05C4F4DE01199620E030E018
:10139000A501480F591FFA016081F90178E0670241
:1013A000E00DF11D1124EE58FF4FE491ED932F5FF6
:1013B0003F4F2830310579F71016110614F58F3F8D
:1013C000EFEF9E07F4F09C012F5F3F4F2E153F0576
:1013D000C4F4DE01519620E030E08A0D9B1D019699
:1013E000FC014081F90158E04502E00DF11D112496
:1013F000EE58FF4FE491ED932F5F3F4F28303105BA
:1014000079F7A101652DC3010E949007539484CF01
:1014100068960FB6F894DEBF0FBECDBFDF91CF91B7
:101420001F910F91FF90EF90DF90CF90BF90AF9002
:101430009F908F907F906F905F904F903F902F90F4
:101440000895CF93DF93EC0140E06CE00E94020826
:101450008D819E81009721F00E94740F1E821D8253
:101460008C81811113C09FB7F89480914301882328
:1014700019F081508093430180914301811105C08F
:101480008CB58F7B8CBD109242019FBFDF91CF91B5
:101490000895CF92DF92EF92FF920F931F93CF9315
:1014A000DF93CDB7DEB728970FB6F894DEBF0FBE37
:1014B000CDBF8C0161E0DC0111968C910E94F0059A
:1014C00061E0F80181810E94C005D80114968C91D9
:1014D0001497882309F447C015968D919C9116970F
:1014E000892B11F58AE090E00E94DF0EFC01D80103
:1014F00013968C91139790E012962C9130E03183E3
:1015000020832FEF3FEF338322839583848384E00E
:1015100090E0A0E0B0E086839783A087B187D801F0
:101520001696FC93EE931597F801E580F680D701A7
:101530008D919C918F3FBFEF9B0719F061E00E9456
:10154000F005F701828193818F3FFFEF9F0719F02C
:1015500060E00E94F00561E0D70114968C910E9432
:10156000F005D12C0CC00E943007FBCFC7010E94B0
:10157000740F41E06CE0C8010E940208D394F801A6
:101580008081D81608F040C047E06BE0C8010E9497
:10159000020840E069E0C8010E94020840E06FE0F4
:1015A000C8010E9402084FE06AE0C8010E940208D8
:1015B00061E070E080E090E00E940C107C010097F8
:1015C00031F0FC0110826AE171E00E94E41060E0F9
:1015D000D8018C91681750F6CC24C394C60EDE0156
:1015E000119680E090E0FC01EE58FE4FE491ED93FF
:1015F000019688309105B9F7AE014F5F5F4FC80182
:101600000E9490076C2DE4CF28960FB6F894DEBFA9
:101610000FBECDBFDF91CF911F910F91FF90EF9043
:10162000DF90CF900895AF92BF92CF92DF92EF926A
:10163000FF920F931F93CF93DF931F92CDB7DEB727
:101640005C017B018B016C0180E7C81A8EEFD80A20
:10165000F80161918F01C50169830E94500E698173
:10166000681719F0C5010E94580EFFEFAF1ABF0AA4
:10167000AC14BD0469F7C7010F90DF91CF911F91A2
:101680000F91FF90EF90DF90CF90BF90AF900895B3
:10169000CF92DF92EF92FF920F931F93CF93DF933E
:1016A000EB017B0120E7E21A2EEFF20A8B016C01BD
:1016B000C61AD70AC601800F911F0E94500EF8016A
:1016C00081938F01EE15FF05A9F7CE01DF91CF9130
:1016D0001F910F91FF90EF90DF90CF9008951F9290
:1016E0000F920FB60F9211242F933F934F935F9356
:1016F0006F937F938F939F93AF93BF93EF93FF93DA
:1017000086E794E00E940305FF91EF91BF91AF91AE
:101710009F918F917F916F915F914F913F912F9109
:101720000F900FBE0F901F9018951F920F920FB63B
:101730000F9211242F938F939F93EF93FF93E09138
:101740008604F09187048081E0918C04F0918D04EF
:1017500082FD12C0908180918F048F5F8F732091E2
:101760009004821751F0E0918F04F0E0EA58FB4FAB
:10177000958F80938F0401C08081FF91EF919F919D
:101780008F912F910F900FBE0F901F9018951F9261
:101790000F920FB60F9211242F933F938F939F9325
:1017A000AF93BF938091490190914A01A0914B0161
:1017B000B0914C013091480123E0230F2D3720F4E4
:1017C0000196A11DB11D05C026E8230F0296A11D9B
:1017D000B11D209348018093490190934A01A09341
:1017E0004B01B0934C018091440190914501A0912F
:1017F0004601B09147010196A11DB11D809344019E
:1018000090934501A0934601B0934701BF91AF91DA
:101810009F918F913F912F910F900FBE0F901F902E
:101820001895E6E7F4E01382128288EE93E0A0E0D8
:10183000B0E084839583A683B7838AE091E09183A7
:10184000808385EC90E09587848784EC90E097878F
:10185000868780EC90E0918B808B81EC90E0938B7D
:10186000828B82EC90E0958B848B86EC90E0978B5A
:10187000868B118E128E138E148EE8EFF5E08AE0BF
:10188000808395E0918312821382148216821582DE
:10189000E1EFF5E0808384E0818312821382148279
:1018A0001682158266E087EA95E00E94750863E07B
:1018B0008DE595E00E94750867E083E195E00C9462
:1018C0007508CF93DF9300D000D0CDB7DEB7789402
:1018D00084B5826084BD84B5816084BD85B5826035
:1018E00085BD85B5816085BD80916E0081608093E6
:1018F0006E0010928100809181008260809381004F
:10190000809181008160809381008091800081605E
:10191000809380008091B10084608093B1008091B9
:10192000B00081608093B00080917A0084608093E1
:101930007A0080917A00826080937A0080917A00A8
:10194000816080937A0080917A00806880937A0029
:101950001092C100E0918604F091870412E0108398
:10196000E0918204F09183041082E0918404F0916C
:1019700085048FEC808310928E04E0918A04F091AC
:101980008B0486E08083E0918804F0918904808153
:1019900080618083E0918804F0918904808188606F
:1019A0008083E0918804F09189048081806880833D
:1019B000E0918804F091890480818F7D808388EF95
:1019C00095E00E94490A81EF95E00E94490A65EE80
:1019D00072E080E090E00E94480B65E571E080E9EC
:1019E00091E00E94480B1093750460EDC62E67E0ED
:1019F000D62EE12CF12CBB24B39470EB272E33248C
:101A00003A94C0927A04D0927B04E0927C04F092E3
:101A10007D0486E794E00E94ED0420917504892BF3
:101A200011F42223B1F3223008F05BC00E948E062D
:101A3000FC0197FD13C08D32910509F4E5C0C097F4
:101A40000A9708F4E1C0E0917604F09177040284EB
:101A5000F385E02D86E794E00995E8CF20E0209318
:101A600075048BE191E00E94E5086091750470E0D7
:101A700080E090E04AE00E94050980E291E00E9447
:101A8000E5084AE060E971E080E090E00E94050925
:101A900080917504823089F480E391E00E94F70818
:101AA00085EE92E00E9438068CE391E00E94F708F0
:101AB00065EE72E080E090E012C0843091F480E343
:101AC00091E00E94F70885E591E00E9438068CE3DA
:101AD00091E00E94F70865E571E080E991E00E94DD
:101AE000130B68EE72E087EA95E00E94C20861E39A
:101AF00073E083E195E00E94C20887EA95E00E94C6
:101B0000540883E195E00E94540868E571E08DE592
:101B100095E00E94C2088DE595E00E94540886E792
:101B200094E00E94ED04892B09F069C00E942C0604
:101B300000915101109152012091530130915401B3
:101B4000DC01CB01801B910BA20BB30BC297A1054B
:101B5000B10528F380904F0190905001A40162E4F8
:101B600073E088EF95E00E94480900914D011091C3
:101B70004E01A80162EB71E081EF95E00E944809F7
:101B8000C40101969093500180934F018091E60229
:101B90002091E702922F9F7044E0880F991F4A9589
:101BA000E1F7959587958816990624F030925001B3
:101BB00020924F01C801019690934E0180934D01F0
:101BC0008091560120915701922F9F7024E0880F39
:101BD000991F2A95E1F7959587950817190724F01D
:101BE00030924E0120924D010E942C0660935101CB
:101BF00070935201809353019093540190CFB0920F
:101C000075040E948D05FDCE20E030E0A90110E0B2
:101C1000E130F105E9F0ED32F105C9F0CF01C097EF
:101C20000A97B0F4AAE0B0E00E94660E2F01FF0F01
:101C300066087708DC01CB01840D951DA61DB71D34
:101C40009C01AD01205331094109510901C011E046
:101C5000E0917604F09177040284F385E02D86E725
:101C600094E029833A834B835C8309950E948E0616
:101C7000FC01C09729813A814B815C810A9740F22F
:101C8000E130F10529F2112309F4E9CE2195E7CEDF
:101C900081EF95E00E94210A88EF95E00C94210ADB
:101CA000F999FECF92BD81BDF89A992780B5089524
:101CB000262FF999FECF1FBA92BD81BD20BD0FB668
:101CC000F894FA9AF99A0FBE019608950E94A80E08
:101CD000A59F900DB49F900DA49F800D911D112480
:101CE00008952F923F924F925F926F927F928F92C0
:101CF0009F92AF92BF92CF92DF92EF92FF920F939B
:101D00001F93CF93DF93CDB7DEB7CA1BDB0B0FB6A4
:101D1000F894DEBF0FBECDBF09942A883988488861
:101D20005F846E847D848C849B84AA84B984C884F7
:101D3000DF80EE80FD800C811B81AA81B981CE0FEE
:101D4000D11D0FB6F894DEBF0FBECDBFED010895D3
:101D5000A29FB001B39FC001A39F700D811D1124EC
:101D6000911DB29F700D811D1124911D0895A1E256
:101D70001A2EAA1BBB1BFD010DC0AA1FBB1FEE1F05
:101D8000FF1FA217B307E407F50720F0A21BB30B50
:101D9000E40BF50B661F771F881F991F1A9469F7CC
:101DA00060957095809590959B01AC01BD01CF0128
:101DB0000895EE0FFF1F0590F491E02D0994CF9345
:101DC000DF938230910510F482E090E0E09101060B
:101DD000F091020620E030E0C0E0D0E0309711F151
:101DE0004081518148175907C0F04817590761F4DD
:101DF00082819381209719F09B838A832BC09093D3
:101E000002068093010626C02115310519F04217FC
:101E1000530718F49A01BE01DF01EF010280F3813C
:101E2000E02DDCCF2115310509F1281B390B2430B9
:101E3000310590F412968D919C911397611571055F
:101E400021F0FB019383828304C090930206809368
:101E50000106FD01329644C0FD01E20FF31F81939C
:101E60009193225031092D933C933AC02091FF0564
:101E700030910006232B41F420910201309103019F
:101E8000309300062093FF0520910001309101015D
:101E90002115310541F42DB73EB740910401509111
:101EA0000501241B350BE091FF05F0910006E217B8
:101EB000F307A0F42E1B3F0B2817390778F0AC016D
:101EC0004E5F5F4F2417350748F04E0F5F1F50934A
:101ED00000064093FF058193919302C0E0E0F0E09B
:101EE000CF01DF91CF9108950F931F93CF93DF938D
:101EF000009709F48CC0FC01329713821282009182
:101F00000106109102060115110581F4208131812D
:101F1000820F931F2091FF05309100062817390783
:101F200079F5F0930006E093FF0571C0D80140E019
:101F300050E0AE17BF0750F412962D913C911397C5
:101F4000AD012115310509F1D901F3CF9D01DA0168
:101F50003383228360817181860F971F82179307D5
:101F600069F4EC0128813981260F371F2E5F3F4F1E
:101F7000318320838A819B8193838283452B29F43B
:101F8000F0930206E093010642C01396FC93EE9391
:101F90001297ED01499159919E01240F351FE217C7
:101FA000F30771F480819181840F951F0296119639
:101FB0009C938E938281938113969C938E93129718
:101FC000E0E0F0E0D80112968D919C911397009774
:101FD00019F0F8018C01F6CF8D919C9198012E5F3C
:101FE0003F4F820F931F2091FF0530910006281765
:101FF000390769F4309729F410920206109201060D
:1020000002C013821282109300060093FF05DF9135
:10201000CF911F910F910895A0E0B0E0E2E1F0E1CF
:102020000C94750EEC01009721F4CB010E94DF0E99
:10203000B8C0FC01E60FF71F9C0122503109E217DE
:10204000F30708F4ACC0D9010D911C911197061744
:102050001707B0F00530110508F49FC0C8010497B8
:102060008617970708F499C002501109061B170B31
:10207000019311936D937C93CF010E94740F8DC0D7
:102080005B01A01AB10A4C01800E911EA0910106BD
:10209000B091020640E050E0E12CF12C109709F4D9
:1020A0004AC0A815B905D1F56D907C9011976301D0
:1020B00082E0C80ED11CCA14DB0480F1A3014A19C6
:1020C0005B096A0182E0C80ED11C1296BC9012977F
:1020D0001396AC91B5E0CB16D10440F0B282A38345
:1020E00051834083D9016D937C930AC00E5F1F4FCB
:1020F000C301800F911FF90191838083EB2DFA2F8B
:10210000E114F10431F0D7011396FC93EE9312978A
:1021100044C0F0930206E09301063FC08D919C916C
:1021200011974817590708F4AC017D0112960D90DC
:10213000BC91A02DB3CF8091FF059091000688152A
:102140009905E1F446175707C8F480910001909172
:102150000101009741F48DB79EB740910401509161
:102160000501841B950BE817F907C8F4F0930006E6
:10217000E093FF05F901718360830FC0CB010E94DA
:10218000DF0E7C01009759F0A801BE010E94DB1010
:10219000CE010E94740FC70104C0CE0102C080E0CE
:1021A00090E0CDB7DEB7EEE00C94910E81E090E0C8
:1021B000F8940C94EB10FB01DC0102C001900D922D
:1021C00041505040D8F70895FB01DC0101900D9279
:1021D0000020E1F7089514E0C2E6D4E004C0FE0157
:1021E0000E94D90E2196C336D107C9F7F894FFCFC4
:1021F0000000030680000000000024058D04BC04DC
:102200006B05ED04CB04DF040D0A006269643D0038
:102210002053697A65206F6620646174613A2000FA
:102220002056616C696420636F64650030783830D3
:022230000000AC
:107E0000112484B714BE81FFF0D085E080938100F7
:107E100082E08093C00088E18093C10086E0809377
:107E2000C20080E18093C4008EE0C9D0259A86E02C
:107E300020E33CEF91E0309385002093840096BBD3
:107E4000B09BFECF1D9AA8958150A9F7CC24DD24C4
:107E500088248394B5E0AB2EA1E19A2EF3E0BF2EE7
:107E6000A2D0813461F49FD0082FAFD0023811F036
:107E7000013811F484E001C083E08DD089C08234E0
:107E800011F484E103C0853419F485E0A6D080C0E4
:107E9000853579F488D0E82EFF2485D0082F10E0AE
:107EA000102F00270E291F29000F111F8ED06801E7
:107EB0006FC0863521F484E090D080E0DECF843638
:107EC00009F040C070D06FD0082F6DD080E0C81688
:107ED00080E7D80618F4F601B7BEE895C0E0D1E017
:107EE00062D089930C17E1F7F0E0CF16F0E7DF06D8
:107EF00018F0F601B7BEE89568D007B600FCFDCFD4
:107F0000A601A0E0B1E02C9130E011968C91119780
:107F100090E0982F8827822B932B1296FA010C0160
:107F200087BEE89511244E5F5F4FF1E0A038BF0790
:107F300051F7F601A7BEE89507B600FCFDCF97BE46
:107F4000E89526C08437B1F42ED02DD0F82E2BD052
:107F50003CD0F601EF2C8F010F5F1F4F84911BD097
:107F6000EA94F801C1F70894C11CD11CFA94CF0C13
:107F7000D11C0EC0853739F428D08EE10CD085E9AC
:107F80000AD08FE07ACF813511F488E018D01DD067
:107F900080E101D065CF982F8091C00085FFFCCF94
:107FA0009093C60008958091C00087FFFCCF809118
:107FB000C00084FD01C0A8958091C6000895E0E648
:107FC000F0E098E1908380830895EDDF803219F02E
:107FD00088E0F5DFFFCF84E1DECF1F93182FE3DFCA
:107FE0001150E9F7F2DF1F91089580E0E8DFEE27F6
:047FF000FF270994CA
:027FFE00040479
:0400000300007E007B
:00000001FF
